:020000040000FA
:100000000C945D000C9485000C9485000C94850084
:100010000C9485000C9485000C9485000C9485004C
:100020000C9485000C9485000C9485000C9485003C
:100030000C9485000C9485000C9485000C9485002C
:100040000C94A2030C9485000C9485000C948500FC
:100050000C9485000C9485000C9485000C9485000C
:100060000C9485000C94850000000008000201003B
:100070000003040700000000000000000000000072
:10008000250028002B0000000000240027002A0083
:10009000040404040404040402020202020203032E
:1000A0000303030301020408102040800102040836
:1000B0001020010204081020E90411241FBECFEF14
:1000C000D8E0DEBFCDBF11E0A0E0B1E0ECE7FAE0A0
:1000D00002C005900D92A236B107D9F721E0A2E641
:1000E000B1E001C01D92AD38B207E1F710E0CDE5F7
:1000F000D0E004C02197FE010E943605CC35D1071F
:10010000C9F70E94EC030C943C050C94000090E0AD
:10011000FC01EC55FF4F249180579F4FFC018491C7
:10012000882399F090E0880F991FFC01EA57FF4F50
:10013000A591B491FC01E458FF4F859194918FB73C
:10014000F894EC91E22BEC938FBF089590E0FC01C2
:10015000E859FF4F2491FC01EC55FF4F3491FC010D
:10016000E057FF4FE491EE23C9F0222339F023300A
:1001700001F1A8F4213019F1223029F1F0E0EE0F5D
:10018000FF1FE458FF4FA591B4918FB7F894EC91FD
:10019000611126C030953E233C938FBF08952730D0
:1001A000A9F02830C9F0243049F7809180008F7D74
:1001B00003C0809180008F7780938000DFCF84B56B
:1001C0008F7784BDDBCF84B58F7DFBCF8091B0006E
:1001D0008F778093B000D2CF8091B0008F7DF9CF20
:1001E0003E2BDACF3FB7F89480916D0190916E016C
:1001F000A0916F01B091700126B5A89B05C02F3F5B
:1002000019F00196A11DB11D3FBFBA2FA92F982F3C
:100210008827BC01CD01620F711D811D911D42E037
:10022000660F771F881F991F4A95D1F708958F92FF
:100230009F92AF92BF92CF92DF92EF92FF924B01CB
:100240005C010E94F2006B017C010E94F2006C19BB
:100250007D098E099F09683E734081059105A8F3C9
:1002600021E0821A9108A108B10888EEC80E83E047
:10027000D81EE11CF11C81149104A104B10429F7DA
:10028000FF90EF90DF90CF90BF90AF909F908F90B6
:100290000895AF92BF92CF92DF92EF92FF920F93A9
:1002A0001F93CF93DF936C017B018B01040F151F0C
:1002B000EB015E01AE18BF08C017D10759F0699174
:1002C000D601ED91FC910190F081E02DC6010995D8
:1002D000892B79F7C501DF91CF911F910F91FF9085
:1002E000EF90DF90CF90BF90AF900895089590E089
:1002F00080E008958091640190916501019690934A
:1003000065018093640180917301909174018B3336
:10031000910534F4019690937401809373010895CC
:100320008091710190917201019690937201809376
:10033000710110927401109273010895FC010190F3
:100340000020E9F73197AF01481B590BBC0185E745
:1003500091E00C944901CF93DF93EC0160E08E8132
:100360000E94A60061E08E810E94A60060E08E815E
:100370000E94A6008BE891E00197F1F7DF91CF9101
:100380000895CF92DF92EF92FF920F931F93CF9336
:10039000DF936C017C0187E0E80EF11CD0E0C0E047
:1003A000062F10E0B8010C2E02C0759567950A94CF
:1003B000E2F76170F70181917F010E94A60021960A
:1003C000C430D10579F7C601DF91CF911F910F910C
:1003D000FF90EF90DF90CF900C94AB01CF92DF9223
:1003E000EF92FF920F931F93CF93DF93EC01F62EC2
:1003F000642F8C810E94A6008D818F3F19F060E0F0
:100400000E94A6000F2D10E08F8584FF25C06E018D
:1004100087E0C80ED11CF12CE12CB8010E2C02C0D3
:10042000759567950A94E2F76170F60181916F0105
:100430000E94A600FFEFEF1AFF0A88E0E816F10419
:1004400061F7CE01DF91CF911F910F91FF90EF9057
:10045000DF90CF900C94AB01B80184E0759567955F
:100460008A95E1F7CE010E94C1016F2DCE01DF9187
:10047000CF911F910F91FF90EF90DF90CF900C9450
:10048000C10140E0682F85E791E00C94EE0181E026
:100490000E9441028BE39FE10197F1F70895CF930A
:1004A000DF93823029F490918401986090938401C5
:1004B000809388011092890180E480938A0180E111
:1004C00080938B0180E580938C01809179010E945B
:1004D000870080917A018F3F11F00E948700809100
:1004E0007B010E948700C5E7D1E09E01255731407E
:1004F0008091840184FD0AC084E090E02196281751
:1005000039073CF48E810E948700EFCF88E090E0AD
:10051000F5CF8BE39DE00197F1F760E080917901E1
:100520000E94A60060E080917B010E94A60080915D
:100530007A018F3F19F060E00E94A600809184014B
:1005400084FD34C063E085E791E00E94C101CBE403
:10055000D6E4CE010197F1F763E085E791E00E94D0
:10056000C1012197F1F763E085E791E00E94C101A5
:1005700083E592E00197F1F762E085E791E00E9460
:10058000C1018091840180620E94410284E08093D5
:1005900085018CE00E9441020E94470282E0809324
:1005A000860186E0DF91CF910C94410280620E9427
:1005B00041028BE496E40197F1F780918401806217
:1005C0000E94410283E592E00197F1F78091840156
:1005D00080620E944102D5CF90918801691710F086
:1005E0006FEF690FE62FF0E0EB58FE4F9489890F0B
:1005F00080680C94410241E00E94EE0181E090E0AD
:1006000008958F929F92AF92BF92CF92DF92EF9216
:10061000FF92CF93DF93CDB7DEB7A1970FB6F894D3
:10062000DEBF0FBECDBF6C01990FEE08FF08F7FECD
:100630003EC041E06DE285E791E00E94EE01222795
:100640003327A9012C193D094E095F0919A2CE01D2
:1006500081967C019AE0892E912CA12CB12CCA01A3
:10066000B901A50194010E941405605DF701629330
:100670007F01211531054105510589F790E080E0A2
:10068000309719F0CF010E949E010196A1960FB6F6
:10069000F894DEBF0FBECDBFDF91CF91FF90EF90FA
:1006A000DF90CF90BF90AF909F908F900895A7015B
:1006B000960119A2CE0181967C018AE0882E912CA8
:1006C000A12CB12CCA01B901A50194010E94140505
:1006D000605DF70162937F012115310541055105E8
:1006E00089F790E080E0309789F2CF010E949E0167
:1006F000CDCF0F931F93CF93DF93EC0101E711E070
:10070000F801808191810E94010385E191E00E94BE
:100710009E01F801828193810E94010387E191E0AB
:100720000E949E01888199810E94010385E191E0E8
:100730000E949E018A819B81DF91CF911F910F9131
:100740000C9401031F920F920FB60F9211242F9356
:100750003F938F939F93AF93BF9380916901909143
:100760006A01A0916B01B0916C013091680123E0A6
:10077000230F2D3758F50196A11DB11D2093680157
:100780008093690190936A01A0936B01B0936C010F
:1007900080916D0190916E01A0916F01B0917001F7
:1007A0000196A11DB11D80936D0190936E01A093E0
:1007B0006F01B0937001BF91AF919F918F913F9165
:1007C0002F910F900FBE0F901F90189526E8230FC2
:1007D0000296A11DB11DD2CF789484B5826084BDEC
:1007E00084B5816084BD85B5826085BD85B5816035
:1007F00085BD80916E00816080936E0010928100B3
:10080000809181008260809381008091810081606D
:10081000809381008091800081608093800080912E
:10082000B10084608093B1008091B00081608093BA
:10083000B00080917A00846080937A0080917A0081
:10084000826080937A0080917A00816080937A0040
:1008500080917A00806880937A001092C10082E0D3
:100860000E944F0260E080E00E94EC0289E191E08A
:100870000E949E0161E080E00E94EC028AE291E029
:100880000E949E0160ED77E080E090E00E941701F9
:100890000E94470260E080E00E94EC028BE391E05E
:1008A0000E949E0161E083E00E94EC028BE491E0F3
:1008B0000E949E0168EB7BE080E090E00E941701BF
:1008C0000E94470283E00E94870081E0809300013C
:1008D00061E083E00E94A60068EE73E080E090E0B3
:1008E0000E941701C0E0D0E00E9447028091000101
:1008F000882379F100916201109163010E947A01CD
:1009000080916401909165018017910790F0109299
:100910007201109271011092740110927301109281
:100920006501109264011092000160E083E00E9472
:10093000A60060E080E00E94EC0286E591E00E9463
:100940009E0161E080E00E94EC028DE091E00E9457
:10095000790380910001811130C0009166011091EE
:1009600067010E947A01809164019091650180176E
:10097000910798F010927201109271011092740117
:1009800010927301109265011092640181E08093CE
:10099000000161E083E00E94A60060E080E00E9428
:1009A000EC028DE591E00E949E0161E080E00E94F2
:1009B000EC0281E191E00E94790368EE73E080E04F
:1009C00090E00E941701209709F48ECF0E9400004A
:1009D0008BCFE5E7F1E01382128285E091E091830D
:1009E000808388E084838FEF858389E0868384E039
:1009F000878385E0808786E0818787E0828713860A
:100A0000148615861686178681E00E944F0288E0BC
:100A100097E090936301809362018CE89AE0909351
:100A20006701809366010895A1E21A2EAA1BBB1BE1
:100A3000FD010DC0AA1FBB1FEE1FFF1FA217B307AA
:100A4000E407F50720F0A21BB30BE40BF50B661FC0
:100A5000771F881F991F1A9469F760957095809584
:100A600090959B01AC01BD01CF010895EE0FFF1FD2
:100A70000590F491E02D0994F894FFCF0100000057
:100A800000FB024901770176011E0000002D0000E5
:100A9000003A002F002020202020467269646765FC
:100AA00020202020200020202054696D65205265E0
:100AB0006C6179202020005365726765792042655A
:100AC0007A75676C697900636F64656E762E746FF2
:0E0AD0007000467265657A65005265737400A9
:107E0000112484B714BE81FFF0D085E080938100F7
:107E100082E08093C00088E18093C10086E0809377
:107E2000C20080E18093C4008EE0C9D0259A86E02C
:107E300020E33CEF91E0309385002093840096BBD3
:107E4000B09BFECF1D9AA8958150A9F7CC24DD24C4
:107E500088248394B5E0AB2EA1E19A2EF3E0BF2EE7
:107E6000A2D0813461F49FD0082FAFD0023811F036
:107E7000013811F484E001C083E08DD089C08234E0
:107E800011F484E103C0853419F485E0A6D080C0E4
:107E9000853579F488D0E82EFF2485D0082F10E0AE
:107EA000102F00270E291F29000F111F8ED06801E7
:107EB0006FC0863521F484E090D080E0DECF843638
:107EC00009F040C070D06FD0082F6DD080E0C81688
:107ED00080E7D80618F4F601B7BEE895C0E0D1E017
:107EE00062D089930C17E1F7F0E0CF16F0E7DF06D8
:107EF00018F0F601B7BEE89568D007B600FCFDCFD4
:107F0000A601A0E0B1E02C9130E011968C91119780
:107F100090E0982F8827822B932B1296FA010C0160
:107F200087BEE89511244E5F5F4FF1E0A038BF0790
:107F300051F7F601A7BEE89507B600FCFDCF97BE46
:107F4000E89526C08437B1F42ED02DD0F82E2BD052
:107F50003CD0F601EF2C8F010F5F1F4F84911BD097
:107F6000EA94F801C1F70894C11CD11CFA94CF0C13
:107F7000D11C0EC0853739F428D08EE10CD085E9AC
:107F80000AD08FE07ACF813511F488E018D01DD067
:107F900080E101D065CF982F8091C00085FFFCCF94
:107FA0009093C60008958091C00087FFFCCF809118
:107FB000C00084FD01C0A8958091C6000895E0E648
:107FC000F0E098E1908380830895EDDF803219F02E
:107FD00088E0F5DFFFCF84E1DECF1F93182FE3DFCA
:107FE0001150E9F7F2DF1F91089580E0E8DFEE27F6
:047FF000FF270994CA
:027FFE00040479
:00000001FF
